:100000000C942A000C9447000C9447000C94470071
:100010000C9447000C9447000C9447000C94470044
:100020000C9447000C9447000C9447000C94470034
:100030000C9447000C9447000C9447000C94470024
:100040000C9447000C9447000C9447000C94470014
:100050000C94470011241FBECFE5D8E0DEBFCDBF12
:1000600012E0A0E6B0E0E0E5FDE302C005900D92ED
:10007000A634B107D9F712E0A6E4B2E001C01D92A0
:10008000AC34B107E1F70E94011D0C94A61E0C943C
:100090000000EF92FF920F931F937B018C0120E0F1
:1000A00030E040E05FE40E94F50388238CF0C80153
:1000B000B70120E030E040E05FE40E94C1010E940F
:1000C000B3049B01AC01205030404040504806C072
:1000D000C801B7010E94B3049B01AC01B901CA0178
:1000E0001F910F91FF90EF900895A0E0B0E0EBE733
:1000F000F0E00C946A1DDC012B01FA019C91923016
:1001000008F439C1EB018881823008F433C194309E
:1001100069F4843009F02FC111969C91119789815F
:10012000981709F428C1A0E2B1E025C1843009F490
:1001300021C18230A9F4923009F01DC19A01AD01AC
:1001400088E0EA010990AE01E90109929E0181501F
:10015000C1F7E201898111969C918923818308C1AD
:10016000923009F407C112962D903C901397EB0141
:100170008A819B811496AD90BD90CD90DC901797AD
:10018000EC80FD800E811F819101281B390BB90184
:1001900037FF04C066277727621B730B6032710537
:1001A0000CF061C0121613066CF537014801062EDB
:1001B00004C096948794779467940A94D2F721E0C8
:1001C00030E040E050E004C0220F331F441F551FB1
:1001D0006A95D2F721503040404050402E213F21B7
:1001E00040235123211531054105510521F021E01E
:1001F00030E040E050E079018A01E628F72808293C
:1002000019293CC0232BD1F1260E371E350146019A
:10021000062E04C096948794779467940A94D2F734
:1002200021E030E040E050E004C0220F331F441FC3
:10023000551F6A95D2F721503040404050402A2146
:100240003B214C215D21211531054105510521F04E
:1002500021E030E040E050E059016A01A628B728CB
:10026000C828D9280BC0821593052CF01C01AA249C
:10027000BB24650103C0EE24FF24870111969C91E5
:10028000D20111968C91981709F445C0992339F041
:10029000A80197012A193B094C095D0906C0A6016E
:1002A00095012E193F09400B510B57FD08C01182D3
:1002B0003382228224833583468357831DC081E0A5
:1002C00081833382228288279927DC01821B930B4A
:1002D000A40BB50B84839583A683B7830DC0220F2F
:1002E000331F441F551F24833583468357838281E0
:1002F000938101979383828324813581468157813D
:10030000DA01C9010197A109B1098F5F9F4FAF4F72
:10031000BF4328F30BC0918333822282EA0CFB1C7B
:100320000C1D1D1DE482F5820683178383E0808304
:10033000248135814681578157FF1AC0C901AA27F8
:1003400097FDA095BA2F81709070A070B0705695EF
:10035000479537952795822B932BA42BB52B848318
:100360009583A683B7838281938101969383828349
:10037000DF0101C0D201CD01CDB7DEB7E2E10C94BF
:10038000861DA0E2B0E0E7ECF1E00C94761D6983F5
:100390007A838B839C832D833E834F835887E9E048
:1003A000EE2EF12CEC0EFD1ECE010196B7010E943F
:1003B000A4068E010F5E1F4FCE010596B8010E9464
:1003C000A4068A8991E089278A8BC701B801AE010A
:1003D000475E5F4F0E9475000E94CF05A096E6E041
:1003E0000C94921DA0E2B0E0E8EFF1E00C94761DD1
:1003F00069837A838B839C832D833E834F835887C5
:10040000F9E0EF2EF12CEC0EFD1ECE010196B701A6
:100410000E94A4068E010F5E1F4FCE010596B80103
:100420000E94A406C701B801AE01475E5F4F0E945B
:1004300075000E94CF05A096E6E00C94921DA0E204
:10044000B0E0E5E2F2E00C946A1D69837A838B8365
:100450009C832D833E834F835887CE010196BE0136
:10046000675F7F4F0E94A406CE010596BE016F5EB6
:100470007F4F0E94A4069985923088F08989823046
:10048000C8F0943019F4823051F404C0843029F457
:10049000923081F480E291E0C6C0923049F420E0CD
:1004A0009A858A89981321E02A87CE010996BBC0D4
:1004B000823049F420E09A858A89981321E02A8BBA
:1004C000CE014196B0C02D843E844F8458886D88FB
:1004D0007E888F88988CEE24FF248701AA24BB2471
:1004E000650140E050E060E070E0E0E0F0E0C10174
:1004F00081709070892BE9F0E60CF71C081D191D1E
:100500009A01AB012A0D3B1D4C1D5D1D80E090E062
:10051000A0E0B0E0E614F7040805190520F481E036
:1005200090E0A0E0B0E0BA01A901480F591F6A1F8E
:100530007B1FAA0CBB1CCC1CDD1C97FE08C081E0F5
:1005400090E0A0E0B0E0A82AB92ACA2ADB2A3196B6
:10055000E032F10549F0660C771C881C991C569412
:10056000479437942794C3CFFA85EA892B893C892D
:100570008B859C85280F391F2E5F3F4F17C0CA01FE
:1005800081709070892B61F016950795F794E79428
:1005900080E090E0A0E0B0E8E82AF92A0A2B1B2BC3
:1005A00076956795579547952F5F3F4F77FDE7CF36
:1005B0000CC0440F551F661F771F17FD4160EE0CDE
:1005C000FF1C001F111F21503040403090E05907A0
:1005D00090E0690790E4790760F32B8F3C8FDB0193
:1005E000CA018F779070A070B07080349105A1051A
:1005F000B10561F447FD0AC0E114F10401051105DC
:1006000029F0405C5F4F6F4F7F4F40781A8EFE1786
:1006100011F081E08A8F4D8F5E8F6F8F78A383E01A
:10062000898FCE0149960E94CF05A096E2E10C94F5
:10063000861DA8E1B0E0EFE1F3E00C94721D698340
:100640007A838B839C832D833E834F835887B9E0C5
:10065000EB2EF12CEC0EFD1ECE010196B7010E948F
:10066000A4068E010F5E1F4FCE010596B8010E94B1
:10067000A4062985223008F47EC03989323010F46E
:10068000B8017CC08A859A8989278A87243011F02D
:10069000223031F4231709F06EC060E271E06EC0C1
:1006A000343039F41D861E861F86188A1C861B86E8
:1006B00004C0323021F484E08987B7015FC02B8504
:1006C0003C858B899C89281B390B3C872B87ED84C3
:1006D000FE840F851889AD88BE88CF88D88CEA142F
:1006E000FB040C051D0540F4EE0CFF1C001F111F40
:1006F000215030403C872B8720E030E040E050E044
:1007000080E090E0A0E0B0E460E070E0EA14FB0478
:100710000C051D0540F0282B392B4A2B5B2BEA18C2
:10072000FB080C091D09B695A79597958795EE0CC2
:10073000FF1C001F111F6F5F7F4F6F31710531F775
:10074000DA01C9018F779070A070B0708034910584
:10075000A105B10561F427FD0AC0E114F10401050A
:10076000110529F0205C3F4F4F4F5F4F20782D87B8
:100770003E874F87588BBE01675F7F4FCB010E943A
:10078000CF056896EAE00C948E1DA8E1B0E0EBEC92
:10079000F3E00C94761D69837A838B839C832D838D
:1007A0003E834F83588789E0E82EF12CEC0EFD1E26
:1007B000CE010196B7010E94A4068E010F5E1F4F65
:1007C000CE010596B8010E94A4068985823040F0CA
:1007D0008989823028F0C701B8010E941C0701C036
:1007E0008FEF6896E6E00C94921DA8E1B0E0EBEF85
:1007F000F3E00C94761D69837A838B839C832D832D
:100800003E834F83588789E0E82EF12CEC0EFD1EC5
:10081000CE010196B7010E94A4068E010F5E1F4F04
:10082000CE010596B8010E94A4068985823040F069
:100830008989823028F0C701B8010E941C0701C0D5
:100840008FEF6896E6E00C94921DA8E1B0E0EBE231
:10085000F4E00C94761D69837A838B839C832D83CB
:100860003E834F83588789E0E82EF12CEC0EFD1E65
:10087000CE010196B7010E94A4068E010F5E1F4FA4
:10088000CE010596B8010E94A4068985823040F009
:100890008989823028F0C701B8010E941C0701C075
:1008A00081E06896E6E00C94921DA8E0B0E0EBE5EC
:1008B000F4E00C94731D9B01AC0183E08983DA01A1
:1008C000C9018827B7FD83959927AA27BB27B82E8A
:1008D000211531054105510519F482E089833AC09B
:1008E0008823A9F0203080E0380780E0480780E8BE
:1008F000580729F460E070E080E09FEC30C0EE24FF
:10090000FF248701E21AF30A040B150B02C07901D8
:100910008A018EE1C82ED12CDC82CB82ED82FE8250
:100920000F831887C801B7010E9480050197181628
:10093000190684F4082E04C0EE0CFF1C001F111FC2
:100940000A94D2F7ED82FE820F831887C81AD90A5B
:10095000DC82CB82BA82CE0101960E94CF05289616
:10096000E9E00C948F1DACE0B0E0E9EBF4E00C940E
:100970007A1D69837A838B839C83CE010196BE01A5
:100980006B5F7F4F0E94A4068D81823061F18230BF
:1009900050F1843021F48E81882351F12EC02F81B3
:1009A000388537FD20C06E812F3131051CF066235C
:1009B000F9F023C08EE190E0821B930B29853A85E4
:1009C0004B855C8504C056954795379527958A9544
:1009D000D2F76623B1F050954095309521953F4F61
:1009E0004F4F5F4F0EC020E030E040E050E009C0C4
:1009F0002FEF3FEF4FEF5FE704C020E030E040E033
:100A000050E8B901CA012C96E2E00C94961DA8E0CA
:100A1000B0E0EDE0F5E00C94721D7B018C016115F6
:100A200071058105910519F482E0898360C083E036
:100A300089838EE1C82ED12CDC82CB82ED82FE82AE
:100A40000F831887C801B7010E948005FC01319708
:100A5000F7FF3BC0222733272E1B3F0B57016801AE
:100A6000022E04C0D694C794B794A7940A94D2F7E0
:100A700040E050E060E070E081E090E0A0E0B0E0B5
:100A800004C0880F991FAA1FBB1F2A95D2F7019790
:100A9000A109B1098E219F21A023B1230097A105AF
:100AA000B10521F041E050E060E070E04A295B29A7
:100AB0006C297D294D835E836F8378878EE190E07A
:100AC0008E1B9F0B9C838B8312C0309781F00E2E60
:100AD00004C0EE0CFF1C001F111F0A94D2F7ED8218
:100AE000FE820F831887CE1ADF0ADC82CB821A823D
:100AF000CE0101960E94CF052896EAE00C948E1D47
:100B0000EF92FF920F931F937B018C0180E0E81618
:100B100080E0F80681E0080780E0180788F48FEF8E
:100B2000E816F1040105110531F028F088E090E0A5
:100B3000A0E0B0E017C080E090E0A0E0B0E012C01C
:100B400080E0E81680E0F80680E0080781E01807FA
:100B500028F088E190E0A0E0B0E004C080E190E0FF
:100B6000A0E0B0E020E230E040E050E0281B390B8C
:100B70004A0B5B0B04C016950795F794E7948A958A
:100B8000D2F7F701E85DFE4F8081281B310941094A
:100B90005109C9011F910F91FF90EF900895DF92C5
:100BA000EF92FF920F931F93FC01E480F580068182
:100BB0001781D1808081823048F480E090E0A0E10C
:100BC000B0E0E82AF92A0A2B1B2BA5C0843009F4CF
:100BD0009FC0823021F4EE24FF24870105C0E11478
:100BE000F1040105110519F4E0E0F0E096C062811E
:100BF00073819FEF623879070CF05BC022E83FEF0A
:100C0000261B370B2A3131052CF020E030E040E084
:100C100050E02AC0B801A701022E04C0769567955E
:100C2000579547950A94D2F781E090E0A0E0B0E0B4
:100C300004C0880F991FAA1FBB1F2A95D2F70197DE
:100C4000A109B1098E219F21A023B1230097A105FD
:100C5000B10521F081E090E0A0E0B0E09A01AB01A5
:100C6000282B392B4A2B5B2BDA01C9018F77907027
:100C7000A070B07080349105A105B10539F427FF4B
:100C800009C0205C3F4F4F4F5F4F04C0215C3F4F76
:100C90004F4F5F4FE0E0F0E02030A0E03A07A0E0E7
:100CA0004A07A0E45A0710F0E1E0F0E079018A0178
:100CB00027C06038710564F5FB01E158FF4FD8018A
:100CC000C7018F779070A070B07080349105A10536
:100CD000B10539F4E7FE0DC080E490E0A0E0B0E09B
:100CE00004C08FE390E0A0E0B0E0E80EF91E0A1F18
:100CF0001B1F17FF05C016950795F794E7943196CB
:100D000087E016950795F794E7948A95D1F705C083
:100D1000EE24FF248701EFEFF0E06E2F6795662742
:100D20006795902F9F77D794DD24D7948E2F869543
:100D3000492F462B582F5D29B701CA011F910F91EA
:100D4000FF90EF90DF900895FC01DB01408151811D
:100D50002281622F6F7770E0221F2227221F93814A
:100D6000892F880F822B282F30E0991F9927991FF0
:100D700011969C93119721153105A9F5411551053F
:100D80006105710511F482E037C082E89FEF139688
:100D90009C938E9312979A01AB0167E0220F331F49
:100DA000441F551F6A95D1F783E08C930DC0220F25
:100DB000331F441F551F12968D919C9113970197D5
:100DC00013969C938E931297203080E0380780E032
:100DD000480780E4580758F314962D933D934D939C
:100DE0005C93179708952F3F310579F4411551050C
:100DF0006105710519F484E08C93089564FF03C0C4
:100E000081E08C9312C01C9210C02F573040139673
:100E10003C932E93129783E08C9387E0440F551FE9
:100E2000661F771F8A95D1F7706414964D935D9372
:100E30006D937C93179708951F93DC01FB019C91A0
:100E4000923008F447C08081823008F443C0943067
:100E500051F411961C91843099F58181682F70E0CE
:100E6000611B71093FC0843021F0923031F482302F
:100E7000B9F18181882389F12DC011961C911197B8
:100E80008230F1F081811817D9F412962D913C919E
:100E90001397828193818217930794F0281739075B
:100EA000BCF014968D919D910D90BC91A02D248144
:100EB000358146815781281739074A075B0718F49F
:100EC000112341F00AC082179307A407B50740F425
:100ED000112319F061E070E005C06FEF7FEF02C0F1
:100EE00060E070E0CB011F910895DF93CF9300D0B5
:100EF0000F92CDB7DEB79A8389836B83ECE3F0E082
:100F00008081882F90E0827090700097B9F7EEE3AF
:100F1000F0E089818083EFE3F0E089819A8180703D
:100F20009370892F99278083EDE3F0E08B81808394
:100F3000ECE3F0E084E08083ECE3F0E082E08083A7
:100F40000F900F900F90CF91DF910895DF93CF9383
:100F500000D000D00F92CDB7DEB79B838A837D830C
:100F60006C83198218C08981282F30E08A819B8187
:100F7000A901480F591F8981282F30E08C819D815C
:100F8000FC01E20FF31F2081CA01622F0E94750746
:100F900089818F5F89838981282F30E08C819D81B1
:100FA000FC01E20FF31F80818823E9F60F900F9078
:100FB0000F900F900F90CF91DF9108950F931F9393
:100FC000DF93CF9300D000D000D0CDB7DEB79B83A6
:100FD0008A836C835E834D83198216C08981282F92
:100FE00030E08D819E818C01020F131F8981282F93
:100FF00030E08A819B81820F931F0E942D08F801A7
:10100000808389818F5F898399818C81981770F49F
:101010008981882F90E09C01215030408D819E81F4
:10102000FC01E20FF31F80818F3FC1F6898181505F
:1010300089838981282F30E08D819E81FC01E20F18
:10104000F31F108226960FB6F894DEBF0FBECDBFF9
:10105000CF91DF911F910F910895DF93CF9300D02F
:101060000F92CDB7DEB79B838A83ECE3F0E08081FB
:10107000882F90E0827090700097B9F7EEE3F0E06F
:101080008A818083EFE3F0E08A819B818070937096
:10109000892F99278083ACE3B0E0ECE3F0E0808116
:1010A00081608C93EDE3F0E08081898389810F90EA
:1010B0000F900F90CF91DF910895DF93CF9300D0E1
:1010C000CDB7DEB71A8219820AC089819A816FEF83
:1010D0000E94750789819A8101969A838983898103
:1010E0009A8124E08030920780F30F900F90CF9187
:1010F000DF910895DF93CF93CDB7DEB729970FB671
:10110000F894DEBF0FBECDBF89836A834B838B818A
:10111000282F30E03987288788859985009709F43A
:1011200077C0288539852130310509F0E5C08981EE
:10113000282F30E03F832E838E819F81823491055A
:1011400059F12E813F812334310534F48E819F8102
:101150008134910569F0D0C02E813F81243431055E
:1011600009F442C08E819F818336910549F1C4C044
:10117000AAE3B0E0EAE3F0E08081482F8A81282FDB
:1011800030E081E090E0022E02C0880F991F0A949F
:10119000E2F7842B8C93B0C0A7E3B0E0E7E3F0E084
:1011A0008081482F8A81282F30E081E090E0022E54
:1011B00002C0880F991F0A94E2F7842B8C939CC07D
:1011C000A4E3B0E0E4E3F0E08081482F8A81282F97
:1011D00030E081E090E0022E02C0880F991F0A944F
:1011E000E2F7842B8C9388C0A1E3B0E0E1E3F0E068
:1011F0008081482F8A81282F30E081E090E0022E04
:1012000002C0880F991F0A94E2F7842B8C9374C054
:101210008981282F30E03D832C838C819D8182340D
:10122000910561F12C813D812334310534F48C81A9
:101230009D818134910569F05FC02C813D8124340A
:10124000310509F445C08C819D818336910559F1A2
:1012500053C0AAE3B0E0EAE3F0E08081482F8A813E
:10126000282F30E081E090E0022E02C0880F991F05
:101270000A94E2F7809584238C933EC0A7E3B0E004
:10128000E7E3F0E08081482F8A81282F30E081E079
:1012900090E0022E02C0880F991F0A94E2F7809511
:1012A00084238C9329C0A4E3B0E0E4E3F0E08081E0
:1012B000482F8A81282F30E081E090E0022E02C082
:1012C000880F991F0A94E2F7809584238C9314C0A9
:1012D000A1E3B0E0E1E3F0E08081482F8A81282F8C
:1012E00030E081E090E0022E02C0880F991F0A943E
:1012F000E2F7809584238C9329960FB6F894DEBF8D
:101300000FBECDBFCF91DF910895DF93CF93CDB7BF
:10131000DEB729970FB6F894DEBF0FBECDBF898325
:101320006A834B838B81282F30E039872887888513
:101330009985009709F477C02885398521303105D2
:1013400009F0E5C08981282F30E03F832E838E810C
:101350009F818234910559F12E813F8123343105DB
:1013600034F48E819F818134910569F0D0C02E8143
:101370003F812434310509F442C08E819F81833638
:10138000910549F1C4C0ABE3B0E0EBE3F0E080814C
:10139000482F8A81282F30E081E090E0022E02C0A1
:1013A000880F991F0A94E2F7842B8C93B0C0A8E3AE
:1013B000B0E0E8E3F0E08081482F8A81282F30E018
:1013C00081E090E0022E02C0880F991F0A94E2F794
:1013D000842B8C939CC0A5E3B0E0E5E3F0E0808132
:1013E000482F8A81282F30E081E090E0022E02C051
:1013F000880F991F0A94E2F7842B8C9388C0A2E38C
:10140000B0E0E2E3F0E08081482F8A81282F30E0CD
:1014100081E090E0022E02C0880F991F0A94E2F743
:10142000842B8C9374C08981282F30E03D832C83DA
:101430008C819D818234910561F12C813D81233421
:10144000310534F48C819D818134910569F05FC050
:101450002C813D812434310509F445C08C819D8166
:101460008336910559F153C0ABE3B0E0EBE3F0E014
:101470008081482F8A81282F30E081E090E0022E81
:1014800002C0880F991F0A94E2F7809584238C93F9
:101490003EC0A8E3B0E0E8E3F0E08081482F8A8115
:1014A000282F30E081E090E0022E02C0880F991FC3
:1014B0000A94E2F7809584238C9329C0A5E3B0E0D9
:1014C000E5E3F0E08081482F8A81282F30E081E039
:1014D00090E0022E02C0880F991F0A94E2F78095CF
:1014E00084238C9314C0A2E3B0E0E2E3F0E08081B7
:1014F000482F8A81282F30E081E090E0022E02C040
:10150000880F991F0A94E2F7809584238C9329967B
:101510000FB6F894DEBF0FBECDBFCF91DF91089517
:10152000DF93CF9300D000D000D0CDB7DEB7898352
:101530006A835C834B838981282F30E03E832D832F
:101540004D815E814234510559F18D819E818334F4
:10155000910534F42D813E812134310569F05BC061
:101560004D815E814434510509F442C08D819E81D4
:101570008336910549F14FC0E9E3F0E08081282FDF
:1015800030E08A81882F90E0A90102C055954795E7
:101590008A95E2F7CA018170EB81FC8180833BC0B0
:1015A000E6E3F0E08081282F30E08A81882F90E008
:1015B000A90102C0559547958A95E2F7CA01817045
:1015C000EB81FC81808327C0E3E3F0E08081282F5A
:1015D00030E08A81882F90E0A90102C05595479597
:1015E0008A95E2F7CA018170EB81FC81808313C088
:1015F000E9E3F0E08081282F30E08A81882F90E0B5
:10160000A90102C0559547958A95E2F7CA018170F4
:10161000EB81FC81808326960FB6F894DEBF0FBE67
:10162000CDBFCF91DF910895DF93CF9300D000D04D
:10163000CDB7DEB789836A838981282F30E03C8368
:101640002B838B819C8182349105D9F02B813C8145
:101650002334310534F48B819C818134910561F010
:101660001EC02B813C8124343105A9F08B819C81E3
:101670008336910559F013C0EAE3F0E08A81808354
:101680000EC0E7E3F0E08A81808309C0E4E3F0E084
:101690008A81808304C0E1E3F0E08A8180830F9037
:1016A0000F900F900F90CF91DF910895DF93CF931C
:1016B00000D000D0CDB7DEB789836A838981282F17
:1016C00030E03C832B838B819C8182349105D9F05F
:1016D0002B813C812334310534F48B819C8181340E
:1016E000910561F01EC02B813C8124343105A9F0A5
:1016F0008B819C818336910559F013C0EBE3F0E0B8
:101700008A8180830EC0E8E3F0E08A81808309C08B
:10171000E5E3F0E08A81808304C0E2E3F0E08A81BF
:1017200080830F900F900F900F90CF91DF910895CD
:10173000DF93CF9300D000D00F92CDB7DEB789836F
:101740007B836A838981282F30E03D832C838C81C1
:101750009D8182349105E9F02C813D81233431054E
:1017600034F48C819D818134910561F026C02C81F7
:101770003D8124343105D9F08C819D8183369105DA
:1017800079F01BC0E9E3F0E08081EA81FB8180838E
:1017900014C0E6E3F0E08081EA81FB8180830DC024
:1017A000E3E3F0E08081EA81FB81808306C0E0E32F
:1017B000F0E08081EA81FB8180830F900F900F9091
:1017C0000F900F90CF91DF910895DF93CF9300D0CA
:1017D00000D000D0CDB7DEB789836A838981282FF6
:1017E00030E03E832D838D819E8181309105C1F053
:1017F0002D813E812330310511F18D819E8100972D
:1018000061F5A7E2B0E0E7E2F0E080818F7B8C93A6
:10181000A7E2B0E0E7E2F0E080818F778C931DC013
:10182000A7E2B0E0E7E2F0E0808180648C93A7E279
:10183000B0E0E7E2F0E080818F778C930EC0A7E202
:10184000B0E0E7E2F0E0808180648C93A7E2B0E052
:10185000E7E2F0E0808180688C93A7E2B0E0E7E205
:10186000F0E080818F7D8C938A81282F30E03C834B
:101870002B838B819C818031910509F46BC02B8176
:101880003C81213131058CF48B819C818430910520
:10189000A9F12B813C812830310509F445C08B81A9
:1018A0009C8182309105A1F0ACC02B813C81203419
:1018B000310509F47BC08B819C818038910509F446
:1018C0008BC02B813C812032310509F459C099C06D
:1018D000A6E2B0E0E6E2F0E080818E7F8C93A6E2A3
:1018E000B0E0E6E2F0E080818D7F8C93A6E2B0E08C
:1018F000E6E2F0E080818B7F8C9383C0A6E2B0E0CB
:10190000E6E2F0E080818E7F8C93A6E2B0E0E6E232
:10191000F0E0808182608C93A6E2B0E0E6E2F0E045
:1019200080818B7F8C936DC0A6E2B0E0E6E2F0E0B0
:10193000808181608C93A6E2B0E0E6E2F0E08081F5
:1019400082608C93A6E2B0E0E6E2F0E080818B7FDB
:101950008C9357C0A6E2B0E0E6E2F0E080818E7F93
:101960008C93A6E2B0E0E6E2F0E080818D7F8C937C
:10197000A6E2B0E0E6E2F0E0808184608C9341C0B2
:10198000A6E2B0E0E6E2F0E0808181608C93A6E21E
:10199000B0E0E6E2F0E080818D7F8C93A6E2B0E0DB
:1019A000E6E2F0E0808184608C932BC0A6E2B0E098
:1019B000E6E2F0E080818E7F8C93A6E2B0E0E6E282
:1019C000F0E0808182608C93A6E2B0E0E6E2F0E095
:1019D000808184608C9315C0A6E2B0E0E6E2F0E07E
:1019E000808181608C93A6E2B0E0E6E2F0E0808145
:1019F00082608C93A6E2B0E0E6E2F0E08081846051
:101A00008C93A6E2B0E0E6E2F0E0808180688C93FF
:101A100026960FB6F894DEBF0FBECDBFCF91DF91F3
:101A20000895DF93CF9300D00F92CDB7DEB78983AF
:101A3000A7E2B0E0E7E2F0E08081807D8C93A7E24E
:101A4000B0E0E7E2F0E090818981892B8C93A6E2F7
:101A5000B0E0E6E2F0E0808180648C93E6E2F0E0C2
:101A6000808182958F70882F90E0817090700097B0
:101A7000A9F3A6E2B0E0E6E2F0E0808180618C9319
:101A8000E7E2F0E08081829586958770882F90E06C
:101A9000817090708823C1F0E4E2F0E0808182954B
:101AA000869586958370282F30E0E5E2F0E080810E
:101AB000882F90E0880F991F880F991FA901482B44
:101AC000592B5B834A8311C0E4E2F0E08081282F28
:101AD00030E0E5E2F0E08081882F90E0982F8827C1
:101AE000A901482B592B5B834A838A819B810F90E4
:101AF0000F900F90CF91DF910895DF93CF9300D097
:101B000000D00F92CDB7DEB78D838D810E94110D6D
:101B1000CC01A0E0B0E0BC01CD010E940705DC01D2
:101B2000CB01BC01CD0120E030E040EA50E40E944E
:101B30001F02DC01CB01BC01CD0120E030E040E818
:101B400054E40E941903DC01CB0189839A83AB839F
:101B5000BC8389819A81AB81BC81BC01CD010F908E
:101B60000F900F900F900F90CF91DF910895DF931A
:101B7000CF930F92CDB7DEB7898389810E947D0D07
:101B8000DC01CB01BC01CD0120E030E048EC52E4A7
:101B90000E941F02DC01CB01BC01CD010E94490063
:101BA000DC01CB010F90CF91DF910895DF93CF93AC
:101BB00000D000D000D0CDB7DEB79B838A837D8371
:101BC0006C83198219C08981282F30E08A819B811A
:101BD000FC01E20FF31F8081882311F18981282FF6
:101BE00030E08C819D81FC01E20FF31F808188230E
:101BF000B9F089818F5F89838981282F30E08A81BC
:101C00009B81FC01E20FF31F40818981282F30E086
:101C10008C819D81FC01E20FF31F8081481799F2AE
:101C20008981282F30E08A819B81FC01E20FF31F1C
:101C30008081882371F48981282F30E08C819D81F7
:101C4000FC01E20FF31F8081882319F481E08E8369
:101C500001C01E828E8126960FB6F894DEBF0FBE9D
:101C6000CDBFCF91DF910895EF92FF920F931F9315
:101C7000DF93CF93CDB7DEB76A970FB6F894DEBF88
:101C80000FBECDBF698B7A8B8B8B9C8B2D8B3E8B44
:101C90004F8B588F1A8F098F89899A89AB89BC8994
:101CA0008D879E87AF87B88B81E090E0A0E0B0E0A1
:101CB00089879A87AB87BC8724C089899A89AB8931
:101CC000BC892AE030E040E050E0BC01CD010E9438
:101CD0004F1DDA01C901898B9A8BAB8BBC8B89852F
:101CE0009A85AB85BC852AE030E040E050E0BC013D
:101CF000CD010E940E1DDC01CB0189879A87AB873D
:101D0000BC8789899A89AB89BC890097A105B105EF
:101D1000A1F68D899E89AF89B88D29853A854B8535
:101D20005C85BC01CD010E942D1DDA01C9018D83A6
:101D30009E83AF83B88781E090E0A0E0B0E0898324
:101D40009A83AB83BC8360C089859A85AB85BC854B
:101D50002AE030E040E050E0BC01CD010E942D1DA2
:101D6000DA01C90189879A87AB87BC87E98DFA8D2B
:101D700080819181A281B3817C018D018D859E85B9
:101D8000AF85B88929853A854B855C85BC01CD0135
:101D90000E942D1DDA01C90129813A814B815C81A4
:101DA000BC01CD010E940E1DDC01CB018E0D9F1DDB
:101DB000A01FB11FE98DFA8D80839183A283B38325
:101DC0008D859E85AF85B88929853A854B855C854B
:101DD000BC01CD010E942D1DDC01CB018D879E87AA
:101DE000AF87B88B89819A81AB81BC812AE030E0D2
:101DF00040E050E0BC01CD010E940E1DDC01CB0192
:101E000089839A83AB83BC8389859A85AB85BC859E
:101E100082309105A105B10508F096CFE98DFA8DC4
:101E200080819181A281B3812D813E814F8158852E
:101E3000BC01CD010E940E1DDC01CB01E98DFA8DA4
:101E400080839183A283B3836A960FB6F894DEBF32
:101E50000FBECDBFCF91DF911F910F91FF90EF90FB
:101E600008950F931F93DF93CF93CDB7DEB7C6547A
:101E7000D0400FB6F894DEBF0FBECDBF81E460E066
:101E800041E00E947A0881E461E041E00E947A0822
:101E900081E462E041E00E947A0883E66FEF0E94ED
:101EA000140BFE01ED5BFF4F80E090E0A0EFB1E48A
:101EB00080839183A283B3838E01015C1F4FFE0157
:101EC000ED5BFF4F608171818281938120E030E082
:101ED0004AE755E40E941F02DC01CB01F801808330
:101EE0009183A283B383FE01FF9660817181828119
:101EF000938120E030E040E85FE30E9425048823DE
:101F00002CF481E090E09EAF8DAF46C0FE01FF96BD
:101F1000608171818281938120E03FEF4FE757E438
:101F20000E94C503181664F5FE01ED5BFF4F60814A
:101F300071818281938120E030E040E251E40E948F
:101F40001F02DC01CB01BC01CD010E944900DC0174
:101F5000CB019EAF8DAF0FC080E991E09CAF8BAFFE
:101F60008BAD9CAD0197F1F79CAF8BAF8DAD9EAD66
:101F700001979EAF8DAF8DAD9EAD009769F716C0EE
:101F8000FE01FF9660817181828193810E944900E8
:101F9000DC01CB019EAF8DAF8DAD9EAD9AAF89AF09
:101FA00089AD9AAD0197F1F79AAF89AF88E30E94A6
:101FB000B61180E090E0A0E8BFE38DAB9EABAFAB85
:101FC000B8AF6DA97EA98FA998AD20E030E04AE7AF
:101FD00055E40E941F02DC01CB0189AB9AABABAB8D
:101FE000BCAB69A97AA98BA99CA920E030E040E8A4
:101FF0005FE30E94250488232CF481E090E098ABF5
:102000008FA73FC069A97AA98BA99CA920E03FEFBF
:102010004FE757E40E94C50318164CF56DA97EA939
:102020008FA998AD20E030E040E251E40E941F0209
:10203000DC01CB01BC01CD010E944900DC01CB01D8
:1020400098AB8FA70FC080E991E09EA78DA78DA5C3
:102050009EA50197F1F79EA78DA78FA598A9019737
:1020600098AB8FA78FA598A9009769F714C069A9A5
:102070007AA98BA99CA90E944900DC01CB0198ABED
:102080008FA78FA598A99CA78BA78BA59CA5019727
:10209000F1F79CA78BA78EE00E94B61180E090E03C
:1020A000A0E8BFE38FA398A7A9A7BAA76FA178A5B7
:1020B00089A59AA520E030E04AE755E40E941F0276
:1020C000DC01CB018BA39CA3ADA3BEA36BA17CA120
:1020D0008DA19EA120E030E040E85FE30E9425044E
:1020E00088232CF481E090E09AA389A33FC06BA1E0
:1020F0007CA18DA19EA120E03FEF4FE757E40E9415
:10210000C50318164CF56FA178A589A59AA520E0FE
:1021100030E040E251E40E941F02DC01CB01BC012F
:10212000CD010E944900DC01CB019AA389A30FC015
:1021300080E991E098A38F8F8F8D98A10197F1F797
:1021400098A38F8F89A19AA101979AA389A389A1A6
:102150009AA1009769F714C06BA17CA18DA19EA1E3
:102160000E944900DC01CB019AA389A389A19AA10D
:102170009E8F8D8F8D8D9E8D0197F1F79E8F8D8F08
:1021800081E00E94B61180E090E0A0E0B0E4898F89
:102190009A8FAB8FBC8F698D7A8D8B8D9C8D20E053
:1021A00030E04AE755E40E941F02DC01CB018D8B31
:1021B0009E8BAF8BB88F6D897E898F89988D20E03B
:1021C00030E040E85FE30E94250488232CF481E09E
:1021D00090E09C8B8B8B3FC06D897E898F89988D19
:1021E00020E03FEF4FE757E40E94C50318164CF577
:1021F000698D7A8D8B8D9C8D20E030E040E251E43A
:102200000E941F02DC01CB01BC01CD010E944900EC
:10221000DC01CB019C8B8B8B0FC080E991E09A8B0A
:10222000898B89899A890197F1F79A8B898B8B8998
:102230009C8901979C8B8B8B8B899C89009769F774
:1022400014C06D897E898F89988D0E944900DC01B8
:10225000CB019C8B8B8B8B899C89988B8F878F85EF
:1022600098890197F1F7988B8F8786E00E94B611C5
:1022700080E090E0A0E8BFE38B879C87AD87BE87B6
:102280006B857C858D859E8520E030E04AE755E4AE
:102290000E941F02DC01CB018F839887A987BA8730
:1022A0006F81788589859A8520E030E040E85FE39A
:1022B0000E94250488232CF481E090E09E838D8386
:1022C0003FC06F81788589859A8520E03FEF4FE791
:1022D00057E40E94C50318164CF56B857C858D85E7
:1022E0009E8520E030E040E251E40E941F02DC01C4
:1022F000CB01BC01CD010E944900DC01CB019E83D2
:102300008D830FC080E991E09C838B838B819C81BE
:102310000197F1F79C838B838D819E8101979E832A
:102320008D838D819E81009769F714C06F817885B8
:1023300089859A850E944900DC01CB019E838D83AB
:102340008D819E819A83898389819A810197F1F792
:102350009A838983CA5BDF4F0FB6F894DEBF0FBE46
:10236000CDBFCF91DF911F910F910895DF93CF9350
:10237000CDB7DEB76D970FB6F894DEBF0FBECDBFF9
:102380008D8F81E460E040E00E94850981E461E096
:1023900040E00E94850983E66D8D0E94560B81E422
:1023A00062E041E00E94850980E090E0A0E8BFE3A0
:1023B000898F9A8FAB8FBC8F698D7A8D8B8D9C8D19
:1023C00020E030E04AE755E40E941F02DC01CB0127
:1023D0008D8B9E8BAF8BB88F6D897E898F89988D01
:1023E00020E030E040E85FE30E94250488232CF4DD
:1023F00081E090E09C8B8B8B3FC06D897E898F89BB
:10240000988D20E03FEF4FE757E40E94C503181670
:102410004CF5698D7A8D8B8D9C8D20E030E040E20B
:1024200051E40E941F02DC01CB01BC01CD010E94DE
:102430004900DC01CB019C8B8B8B0FC080E991E0C4
:102440009A8B898B89899A890197F1F79A8B898B65
:102450008B899C8901979C8B8B8B8B899C8900979E
:1024600069F714C06D897E898F89988D0E94490013
:10247000DC01CB019C8B8B8B8B899C89988B8F8704
:102480008F8598890197F1F7988B8F8781E462E0B7
:1024900040E00E94850980E090E0A0E8BFE38B87E0
:1024A0009C87AD87BE876B857C858D859E8520E06A
:1024B00030E04AE755E40E941F02DC01CB018F8324
:1024C0009887A987BA876F81788589859A8520E062
:1024D00030E040E85FE30E94250488232CF481E08B
:1024E00090E09E838D833FC06F81788589859A8532
:1024F00020E03FEF4FE757E40E94C50318164CF564
:102500006B857C858D859E8520E030E040E251E43E
:102510000E941F02DC01CB01BC01CD010E944900D9
:10252000DC01CB019E838D830FC080E991E09C8309
:102530008B838B819C810197F1F79C838B838D81A9
:102540009E8101979E838D838D819E81009769F77F
:1025500014C06F81788589859A850E944900DC01C5
:10256000CB019E838D838D819E819A83898389810E
:102570009A810197F1F79A8389836D960FB6F89443
:10258000DEBF0FBECDBFCF91DF910895DF93CF9314
:10259000CDB7DEB76D970FB6F894DEBF0FBECDBFD7
:1025A0008D8F81E460E041E00E94850983E66D8DB6
:1025B0000E94560B81E462E041E00E94850980E0C0
:1025C00090E0A0E8BFE3898F9A8FAB8FBC8F698DB5
:1025D0007A8D8B8D9C8D20E030E04AE755E40E9497
:1025E0001F02DC01CB018D8B9E8BAF8BB88F6D8969
:1025F0007E898F89988D20E030E040E85FE30E947B
:10260000250488232CF481E090E09C8B8B8B3FC0C9
:102610006D897E898F89988D20E03FEF4FE757E4E1
:102620000E94C50318164CF5698D7A8D8B8D9C8D93
:1026300020E030E040E251E40E941F02DC01CB01C7
:10264000BC01CD010E944900DC01CB019C8B8B8B2E
:102650000FC080E991E09A8B898B89899A890197CB
:10266000F1F79A8B898B8B899C8901979C8B8B8B3B
:102670008B899C89009769F714C06D897E898F8941
:10268000988D0E944900DC01CB019C8B8B8B8B8940
:102690009C89988B8F878F8598890197F1F7988B04
:1026A0008F8781E462E040E00E94850980E090E04D
:1026B000A0E8BFE38B879C87AD87BE876B857C8551
:1026C0008D859E8520E030E04AE755E40E941F0298
:1026D000DC01CB018F839887A987BA876F817885C2
:1026E00089859A8520E030E040E85FE30E94250478
:1026F00088232CF481E090E09E838D833FC06F811E
:10270000788589859A8520E03FEF4FE757E40E945E
:10271000C50318164CF56B857C858D859E8520E05C
:1027200030E040E251E40E941F02DC01CB01BC0119
:10273000CD010E944900DC01CB019E838D830FC037
:1027400080E991E09C838B838B819C810197F1F7D9
:102750009C838B838D819E8101979E838D838D8148
:102760009E81009769F714C06F81788589859A8565
:102770000E944900DC01CB019E838D838D819E8167
:102780009A83898389819A810197F1F79A83898352
:102790006D960FB6F894DEBF0FBECDBFCF91DF911F
:1027A0000895DF93CF9300D00F92CDB7DEB79B8310
:1027B0008A83198215C08981803121F480E061E02B
:1027C0000E9447158981282F30E08A819B81FC0176
:1027D000E20FF31F80810E94C61289818F5F898377
:1027E0008981282F30E08A819B81FC01E20FF31F51
:1027F0008081882301F70F900F900F90CF91DF9188
:102800000895DF93CF93CDB7DEB72C970FB6F8942A
:10281000DEBF0FBECDBF69877A878B879C8789858E
:102820009A85AB85BC850097A105B10521F480E3AD
:102830000E94C61218C089859A85AB85BC85BB23CA
:1028400094F48DE20E94C61289859A85AB85BC8579
:10285000B095A095909581959F4FAF4FBF4F8987B9
:102860009A87AB87BC8781E090E0A0E0B0E08D83E1
:102870009E83AF83B88789859A85AB85BC8589831C
:102880009A83AB83BC8324C089859A85AB85BC853C
:102890002AE030E040E050E0BC01CD010E944F1D35
:1028A000DA01C90189879A87AB87BC878D819E81B0
:1028B000AF81B8852AE030E040E050E0BC01CD01B6
:1028C0000E940E1DDC01CB018D839E83AF83B887F0
:1028D00089859A85AB85BC850097A105B105A1F6D0
:1028E00035C08D819E81AF81B8852AE030E040E01F
:1028F00050E0BC01CD010E942D1DDA01C9018D837C
:102900009E83AF83B88789819A81AB81BC812D81F9
:102910003E814F815885BC01CD010E942D1DDA01F9
:10292000C901805D0E94C61289819A81AB81BC81F8
:102930002D813E814F815885BC01CD010E942D1D06
:10294000DC01CB0189839A83AB83BC838D819E811B
:10295000AF81B88582309105A105B10510F62C969E
:102960000FB6F894DEBF0FBECDBFCF91DF910895B3
:10297000DF93CF93CDB7DEB728970FB6F894DEBFBD
:102980000FBECDBF6D837E838F8398876D817E81DF
:102990008F8198850E94B304DC01CB01BC01CD017D
:1029A0000E9401146D817E818F8198850E94B304FD
:1029B000DC01CB01BC01CD010E9455049B01AC019F
:1029C0006D817E818F8198850E94C101DC01CB01E0
:1029D0008D839E83AF83B8878EE20E94C6121982D0
:1029E0001A821B821C8240C06D817E818F819885F6
:1029F00020E030E040E251E40E941F02DC01CB0104
:102A00008D839E83AF83B8876D817E818F8198850A
:102A10000E944900DC01CB01805D0E94C6126D81DD
:102A20007E818F8198850E94B304DC01CB01BC01BB
:102A3000CD010E9455049B01AC016D817E818F8187
:102A400098850E94C101DC01CB018D839E83AF83F9
:102A5000B88789819A81AB81BC810196A11DB11D86
:102A600089839A83AB83BC8389819A81AB81BC8142
:102A700084309105A105B10508F4B6CF28960FB6AC
:102A8000F894DEBF0FBECDBFCF91DF910895DF93E5
:102A9000CF9300D0CDB7DEB789836A838981806800
:102AA00089838A81882319F0898180648983898157
:102AB0000E94B6110F900F90CF91DF910895DF9390
:102AC000CF93CDB7DEB72E970FB6F894DEBF0FBE0B
:102AD000CDBF81E00E94B61180E090E0A0E0B0E4BC
:102AE0008B879C87AD87BE876B857C858D859E8512
:102AF00020E030E04AE755E40E941F02DC01CB01F0
:102B00008F839887A987BA876F81788589859A8509
:102B100020E030E040E85FE30E94250488232CF4A5
:102B200081E090E09E838D833FC06F8178858985A9
:102B30009A8520E03FEF4FE757E40E94C50318163F
:102B40004CF56B857C858D859E8520E030E040E2EC
:102B500051E40E941F02DC01CB01BC01CD010E94A7
:102B60004900DC01CB019E838D830FC080E991E099
:102B70009C838B838B819C810197F1F79C838B8352
:102B80008D819E8101979E838D838D819E8100978B
:102B900069F714C06F81788589859A850E944900FC
:102BA000DC01CB019E838D838D819E819A838983F5
:102BB00089819A810197F1F79A8389832E960FB6BE
:102BC000F894DEBF0FBECDBFCF91DF910895DF93A4
:102BD000CF9300D000D0CDB7DEB79B838A836C83C0
:102BE0008C81882F90E00896880F991F880F991F75
:102BF000880F991F0E94B61119820EC08981282F53
:102C000030E08A819B81FC01E20FF31F80810E94EA
:102C1000C61289818F5F89838981883078F380E843
:102C20000E94B61182E00E94B6110F900F900F9093
:102C30000F90CF91DF910895DF93CF93CDB7DEB79B
:102C400082E46FE00E94140B82E46FE70E94560B4F
:102C5000CF91DF910895DF93CF93CDB7DEB7A397E0
:102C60000FB6F894DEBF0FBECDBF8BE2898BCE01CD
:102C7000429698A38F8FEEE2F2E0FAA3E9A3FCE07C
:102C8000FBA3E9A1FAA1008089A19AA101969AA3C8
:102C900089A3EF8DF8A100828F8D98A1019698A34A
:102CA0008F8F9BA191509BA3EBA1EE2351F7188A24
:102CB000AEC082E4688940E00E94850984E08F8785
:102CC0009AC01E8E9E01225E3F4F82E46F85A9014D
:102CD0000E94900A8E8D8130C9F08889282F30E0BB
:102CE0008F85882F90E0AC0144505040C901880F77
:102CF000991F820F931F9E012F5F3F4F820F931FDB
:102D0000840F951FFC0171968081898B80E090E093
:102D1000A0EAB1E48B879C87AD87BE876B857C85F5
:102D20008D859E8520E030E04AE755E40E941F0231
:102D3000DC01CB018F839887A987BA876F8178855B
:102D400089859A8520E030E040E85FE30E94250411
:102D500088232CF481E090E09E838D833FC06F81B7
:102D6000788589859A8520E03FEF4FE757E40E94F8
:102D7000C50318164CF56B857C858D859E8520E0F6
:102D800030E040E251E40E941F02DC01CB01BC01B3
:102D9000CD010E944900DC01CB019E838D830FC0D1
:102DA00080E991E09C838B838B819C810197F1F773
:102DB0009C838B838D819E8101979E838D838D81E2
:102DC0009E81009769F714C06F81788589859A85FF
:102DD0000E944900DC01CB019E838D838D819E8101
:102DE0009A83898389819A810197F1F79A838983EC
:102DF0008F858F5F8F878F85873008F462CF82E45D
:102E0000688941E00E94850988898F5F888B88895D
:102E1000843008F44ECF8989A3960FB6F894DEBFAC
:102E20000FBECDBFCF91DF910895DF93CF93CDB784
:102E3000DEB7A7970FB6F894DEBF0FBECDBF8BE20B
:102E40008B8B8BE28A8BCE0144969CA38BA3EAE307
:102E5000F2E0FEA3EDA3FCE0FFA3EDA1FEA1008044
:102E60008DA19EA101969EA38DA3EBA1FCA1008242
:102E70008BA19CA101969CA38BA39FA191509FA382
:102E8000EFA1EE2351F71F86F6C0198AF0C082E445
:102E9000698940E00E94850984E0888BDCC018A223
:102EA0009E01205E3F4F82E46889A9010E94900A3A
:102EB00088A1813009F45AC08989282F30E0888997
:102EC000882F90E0AC0144505040C901880F991FF1
:102ED000820F931F9E012F5F3F4F820F931F840F1E
:102EE000951FFC01739680818B8B8A898B32C9F484
:102EF0008989282F30E08889882F90E0AC014450E0
:102F00005040C901880F991F820F931F9E012F5FA8
:102F10003F4F820F931F840F951FFC017396808192
:102F20008A8B9B898A89981721F48F858F5F8F8779
:102F30000BC09B898A89981739F08B89803321F0DF
:102F400081E08F878B898A8B8A89893731F48F85D5
:102F5000833019F4F8E0FAA3B8C08B898A3219F0EB
:102F60008B89833219F48B898AA3AFC080E090E00B
:102F7000A0EAB1E48B879C87AD87BE876B857C8593
:102F80008D859E8520E030E04AE755E40E941F02CF
:102F9000DC01CB018F839887A987BA876F817885F9
:102FA00089859A8520E030E040E85FE30E942504AF
:102FB00088232CF481E090E09E838D833FC06F8155
:102FC000788589859A8520E03FEF4FE757E40E9496
:102FD000C50318164CF56B857C858D859E8520E094
:102FE00030E040E251E40E941F02DC01CB01BC0151
:102FF000CD010E944900DC01CB019E838D830FC06F
:1030000080E991E09C838B838B819C810197F1F710
:103010009C838B838D819E8101979E838D838D817F
:103020009E81009769F714C06F81788589859A859C
:103030000E944900DC01CB019E838D838D819E819E
:103040009A83898389819A810197F1F79A83898389
:1030500088898F5F888B8889873008F420CF82E445
:10306000698941E00E94850989898F5F898B8989F7
:10307000843008F40CCF8B89803321F08F85833026
:1030800008F403CF8A89282F30E08F85882F90E0BD
:10309000820F931F0197813691059CF08A89282F12
:1030A00030E08F85882F90E0820F931F01978B3738
:1030B00091053CF48A899F85890F982F915099A397
:1030C00002C0EBE2E9A3F9A1FAA38AA1A7960FB681
:1030D000F894DEBF0FBECDBFCF91DF910895DF938F
:1030E000CF9300D00F92CDB7DEB785E060E00E94AD
:1030F000471580E690E00E94D11380E061E00E94D5
:10310000471587E690E00E94D1138BE2898303C0C4
:103110000E942B16898389818A3219F08981833232
:10312000B9F70E945F158981282F30E03B832A83FD
:103130008A819B818332910531F02A813B812A3239
:10314000310521F005C00E946A1A02C00E94A61A29
:103150000F900F900F90CF91DF910895DF93CF9351
:10316000CDB7DEB70E94310F0E941C1684E460E0E8
:1031700041E00E947A0885E090E00E94A11D9093B2
:10318000470280934602CF91DF910895DF93CF935A
:10319000CDB7DEB7AD970FB6F894DEBF0FBECDBF8B
:1031A0009DA78CA71BA681C18BA5282F30E08CA5DD
:1031B0009DA5FC01E20FF31F80818E3209F078C0DB
:1031C00084E460E041E00E94850980E090E0A8ECA2
:1031D000B3E48FA398A7A9A7BAA76FA178A589A5DB
:1031E0009AA520E030E04AE755E40E941F02DC0186
:1031F000CB018BA39CA3ADA3BEA36BA17CA18DA18E
:103200009EA120E030E040E85FE30E94250488238F
:103210002CF481E090E09AA389A33FC06BA17CA12C
:103220008DA19EA120E03FEF4FE757E40E94C50328
:1032300018164CF56FA178A589A59AA520E030E075
:1032400040E251E40E941F02DC01CB01BC01CD0130
:103250000E944900DC01CB019AA389A30FC080E939
:1032600091E098A38F8F8F8D98A10197F1F798A384
:103270008F8F89A19AA101979AA389A389A19AA165
:10328000009769F798C06BA17CA18DA19EA10E94B7
:103290004900DC01CB019AA389A389A19AA19E8F41
:1032A0008D8F8D8D9E8D0197F1F79E8F8D8F83C0B1
:1032B0008BA5282F30E08CA59DA5FC01E20FF31F04
:1032C00080818D3209F077C084E460E041E00E94A3
:1032D000850980E090E0A8E4B4E4898F9A8FAB8FF1
:1032E000BC8F698D7A8D8B8D9C8D20E030E04AE714
:1032F00055E40E941F02DC01CB018D8B9E8BAF8BAE
:10330000B88F6D897E898F89988D20E030E040E804
:103310005FE30E94250488232CF481E090E09C8BDD
:103320008B8B3FC06D897E898F89988D20E03FEF20
:103330004FE757E40E94C50318164CF5698D7A8D46
:103340008B8D9C8D20E030E040E251E40E941F0212
:10335000DC01CB01BC01CD010E944900DC01CB01A5
:103360009C8B8B8B0FC080E991E09A8B898B89892C
:103370009A890197F1F79A8B898B8B899C890197A0
:103380009C8B8B8B8B899C89009769F714C06D8906
:103390007E898F89988D0E944900DC01CB019C8B2E
:1033A0008B8B8B899C89988B8F878F8598890197C8
:1033B000F1F7988B8F8784E460E040E00E948509F4
:1033C00080E090E0A8E4B3E48B879C87AD87BE875C
:1033D0006B857C858D859E8520E030E04AE755E44D
:1033E0000E941F02DC01CB018F839887A987BA87CF
:1033F0006F81788589859A8520E030E040E85FE339
:103400000E94250488232CF481E090E09E838D8324
:103410003FC06F81788589859A8520E03FEF4FE72F
:1034200057E40E94C50318164CF56B857C858D8585
:103430009E8520E030E040E251E40E941F02DC0162
:10344000CB01BC01CD010E944900DC01CB019E8370
:103450008D830FC080E991E09C838B838B819C815D
:103460000197F1F79C838B838D819E8101979E83C9
:103470008D838D819E81009769F714C06F81788557
:1034800089859A850E944900DC01CB019E838D834A
:103490008D819E819A83898389819A810197F1F731
:1034A0009A8389838BA58F5F8BA78BA5282F30E00C
:1034B0008CA59DA5FC01E20FF31F8081882309F0F4
:1034C00073CEAD960FB6F894DEBF0FBECDBFCF91D1
:1034D000DF910895DF93CF9300D0CDB7DEB78BE2B5
:1034E0008A8303C00E9415178A838A818B32D1F3A5
:1034F0000E945F1580E060E00E9447158A8180523B
:103500000E94C61280914602909147022A81622F42
:103510000E94FA1A89838981882399F480E061E006
:103520000E94471580914602909147020E94D11354
:1035300080914602909147020E94C6188BE28A83CE
:10354000D4CFCE0102960E94E11ACFCFDF93CF9362
:1035500000D0CDB7DEB78BE28A8303C00E942B1662
:103560008A838A818B32D1F30E945F1580E060E00C
:103570000E9447158A810E94C6128091460290914E
:1035800047022A81622F0E94FA1A8983898188233F
:1035900099F480E061E00E94471580914602909185
:1035A00047020E94D11380914602909147020E94E7
:1035B000C6188BE28A83D5CFCE0102960E94E11A0B
:1035C000D0CFDF93CF9300D0CDB7DEB79A83898376
:1035D0000E945F15E981FA8180818A3211F40E948C
:1035E0006F18E981FA818BE280830F900F90CF9161
:1035F000DF910895DF93CF93CDB7DEB729970FB64C
:10360000F894DEBF0FBECDBF9D838C836E831B827B
:103610001A8285E090E00E94A11D9B838A838E819F
:10362000282F30E039872887888599858836910545
:1036300009F41BC128853985293631050CF079C07C
:10364000888599858833910509F496C1288539853F
:1036500029333105BCF5888599858333910509F4B3
:1036600072C128853985243331059CF48885998574
:103670008133910509F45DC12885398522333105EF
:103680000CF05CC1888599858033910509F44CC1A3
:103690007DC1288539852533310509F45EC18885CA
:1036A0009985853391050CF453C1288539852633D6
:1036B000310509F457C1888599858733910509F447
:1036C00056C164C1288539852336310509F4B4C053
:1036D00088859985843691059CF42885398521361D
:1036E000310509F49FC088859985823691050CF0D3
:1036F0009EC0288539852933310509F442C146C168
:10370000888599858536910509F4A0C02885398575
:10371000253631050CF495C0888599858636910546
:1037200009F499C0288539852736310509F498C0F0
:103730002DC1888599858137910509F4C3C02885F5
:103740003985223731058CF5888599858C36910528
:1037500009F49FC0288539852D3631056CF488859C
:1037600099858A36910509F48AC0288539852B36D2
:1037700031050CF089C07EC0888599858E3691050B
:1037800009F491C0288539852E3631050CF486C0A0
:10379000888599858F36910509F48AC028853985F1
:1037A0002037310509F489C0F1C0888599858637AD
:1037B000910509F4A0C02885398527373105CCF457
:1037C000888599858337910509F486C028853985D0
:1037D000233731050CF47BC08885998584379105A2
:1037E00009F47FC0288539852537310509F47EC065
:1037F000CDC0888599858837910509F486C02885CC
:103800003985283731050CF47BC08885998589373F
:10381000910509F47FC0288539852A37310509F4D7
:103820007EC0B4C088E790E09B838A83B2C08BE7F8
:1038300090E09B838A83ADC080E890E09B838A837D
:10384000A8C085E890E09B838A83A3C089E890E0C4
:103850009B838A839EC08BE890E09B838A8399C078
:1038600080E990E09B838A8394C084E990E09B8305
:103870008A838FC089E990E09B838A838AC08CE920
:1038800090E09B838A8385C081EA90E09B838A8352
:1038900080C085EA90E09B838A837BC08AEA90E0BF
:1038A0009B838A8376C08DEA90E09B838A8371C074
:1038B00080EB90E09B838A836CC084EB90E09B83D9
:1038C0008A8367C089EB90E09B838A8362C08EEB1A
:1038D00090E09B838A835DC082EC90E09B838A8327
:1038E00058C086EC90E09B838A8353C088EC90E0BC
:1038F0009B838A834EC08CEC90E09B838A8349C073
:1039000081ED90E09B838A8344C085ED90E09B83AA
:103910008A833FC08AED90E09B838A833AC08FED13
:1039200090E09B838A8335C084EE90E09B838A83FA
:1039300030C08AEE90E09B838A832BC080EF90E0BA
:103940009B838A8326C086EF90E09B838A8321C075
:103950008CEF90E09B838A831CC082E091E09B8384
:103960008A8317C088E091E09B838A8312C08EE02F
:1039700091E09B838A830DC084E191E09B838A83DD
:1039800008C08AE191E09B838A8303C031E03F83D2
:103990002EC0198215C08981282F30E08C819D812D
:1039A000DC01A20FB31F8981282F30E08A819B811F
:1039B000FC01E20FF31F80818C9389818F5F8983E3
:1039C0008981282F30E08A819B81FC01E20FF31F5F
:1039D0008081882301F78981282F30E08C819D81A7
:1039E000FC01E20FF31F10821B821A821F828F815B
:1039F00029960FB6F894DEBF0FBECDBFCF91DF91F1
:103A00000895DF93CF93CDB7DEB70E94AE180E9422
:103A10006F1880E090E0CF91DF910895629FD00110
:103A2000739FF001829FE00DF11D649FE00DF11D79
:103A3000929FF00D839FF00D749FF00D659FF00D28
:103A40009927729FB00DE11DF91F639FB00DE11D15
:103A5000F91FBD01CF0111240895A1E21A2EAA1B5E
:103A6000BB1BFD010DC0AA1FBB1FEE1FFF1FA2172E
:103A7000B307E407F50720F0A21BB30BE40BF50B2B
:103A8000661F771F881F991F1A9469F760957095B4
:103A9000809590959B01AC01BD01CF01089597FBE6
:103AA000092E05260ED057FD04D0D7DF0AD0001C02
:103AB00038F450954095309521953F4F4F4F5F4FCB
:103AC0000895F6F790958095709561957F4F8F4F8B
:103AD0009F4F08952F923F924F925F926F927F92E5
:103AE0008F929F92AF92BF92CF92DF92EF92FF920E
:103AF0000F931F93CF93DF93CDB7DEB7CA1BDB0BBA
:103B00000FB6F894DEBF0FBECDBF09942A8839885E
:103B100048885F846E847D848C849B84AA84B98465
:103B2000C884DF80EE80FD800C811B81AA81B98171
:103B3000CE0FD11D0FB6F894DEBF0FBECDBFED0185
:103B40000895CF93DF93BC018230910510F462E0B9
:103B500070E0A0914A02B0914B02ED01E0E0F0E08C
:103B600040E050E021C0888199818617970769F469
:103B70008A819B81309719F09383828304C090934C
:103B80004B0280934A02FE0134C06817790738F46B
:103B90004115510519F08417950708F4AC01FE0191
:103BA0008A819B819C01E9012097E9F64115510525
:103BB000A9F1CA01861B970B049708F4BA01E0E04B
:103BC000F0E02AC08D919C91119784179507F9F424
:103BD0006417750781F412968D919C911397309715
:103BE00019F09383828304C090934B0280934A021E
:103BF000FD0132964FC0CA01861B970BFD01E80FED
:103C0000F91F6193719302978D939C9343C0FD01BB
:103C1000828193819C01D9011097A1F6809148027D
:103C200090914902892B41F480912A0290912B02B4
:103C3000909349028093480240912C0250912D02AA
:103C40004115510541F44DB75EB78091280290911E
:103C50002902481B590B2091480230914902241730
:103C60003507B0F4CA01821B930B8617970780F0C3
:103C7000AB014E5F5F4F8417950750F0420F531F03
:103C80005093490240934802F9016193719302C035
:103C9000E0E0F0E0CF01DF91CF910895CF93DF9383
:103CA000009709F450C0EC0122971B821A82A09160
:103CB0004A02B0914B02109709F140E050E0AC1776
:103CC000BD0708F1BB83AA83FE0121913191E20F68
:103CD000F31FAE17BF0779F48D919C911197280FB0
:103CE000391F2E5F3F4F3983288312968D919C9107
:103CF00013979B838A834115510571F4D0934B022E
:103D0000C0934A0220C012968D919C911397AD01E9
:103D1000009711F0DC01D3CFFA01D383C283219144
:103D20003191E20FF31FCE17DF0769F48881998183
:103D3000280F391F2E5F3F4FFA01318320838A817C
:103D40009B8193838283DF91CF910895F894FFCF75
:103D500073656C656374002A6E756D6265722363AA
:103D600068617263746572002E2D002D2E2E2E0058
:103D70002D2E2D2E002D2E2E002E002E2E2D2E001F
:103D80002D2D2E002E2E2E2E002E2E002E2D2D2DE2
:103D9000002D2E2D002E2D2E2E002D2D002D2E002F
:103DA0002D2D2D002E2D2D2E002D2D2E2D002E2DC6
:103DB0002E002E2E2E002D002E2E2D002E2E2E2DDE
:103DC000002E2D2D002D2E2E2D002D2E2D2D002DD3
:103DD0002D2E2E002D2D2D2D2D002E2D2D2D2D0097
:103DE0002E2E2D2D2D002E2E2E2D2D002E2E2E2E54
:103DF0002D002E2E2E2E2E002D2E2E2E2E002D2D71
:103E00002E2E2E002D2D2D2E2E002D2D2D2D2E0063
:103E10000000000000000000000102020303030391
:103E2000040404040404040405050505050505054A
:103E3000050505050505050506060606060606062A
:103E40000606060606060606060606060606060612
:103E500006060606060606060707070707070707FA
:103E600007070707070707070707070707070707E2
:103E700007070707070707070707070707070707D2
:103E800007070707070707070707070707070707C2
:103E900007070707070707070808080808080808AA
:103EA0000808080808080808080808080808080892
:103EB0000808080808080808080808080808080882
:103EC0000808080808080808080808080808080872
:103ED0000808080808080808080808080808080862
:103EE0000808080808080808080808080808080852
:103EF0000808080808080808080808080808080842
:103F00000808080808080808080808080808080831
:103F1000080808080808080820004C020000313290
:103F2000333435363738392A30236164676A6D7027
:063F30007376792A3023AC
:00000001FF
